:100000000C9434000C943E000C943E000C943E0082
:100010000C943E000C943E000C943E000C943E0068
:100020000C943E000C943E000C943E000C943E0058
:100030000C943E000C943E000C943E000C943E0048
:100040000C943E000C943E000C943E000C943E0038
:100050000C943E000C943E000C943E000C943E0028
:100060000C943E000C943E0011241FBECFEFD8E04C
:10007000DEBFCDBF0E9440000C94A7020C9400008C
:10008000CF93DF93CDB7DEB76E970FB6F894DEBF90
:100090000FBECDBF88EE93E09A83898384E290E01F
:1000A00024E230E0F90120812062FC01208385E216
:1000B00090E025E230E0F90120812062FC012083FC
:1000C00089819A81AA2797FDA095BA2FBC01CD01FD
:1000D0000E949001DC01CB018B839C83AD83BE83A6
:1000E00020E030E04AE755E46B817C818D819E8180
:1000F0000E941C02DC01CB018F839887A987BA87F5
:1001000020E030E040E85FE36F81788589859A855B
:100110000E945E0188232CF481E090E09C878B870D
:100120003FC020E03FEF4FE757E46F817885898536
:100130009A850E94180218164CF520E030E040E243
:1001400051E46B817C818D819E810E941C02DC01C7
:10015000CB01BC01CD010E946201DC01CB019C8777
:100160008B870FC080E991E09E878D878D859E8566
:100170000197F1F79E878D878B859C8501979C87DA
:100180008B878B859C85009769F714C06F81788574
:1001900089859A850E946201DC01CB019C878B874F
:1001A0008B859C85988B8F878F8598890197F1F730
:1001B000988B8F8785E290E025E230E0F90120817D
:1001C0002F7DFC01208389819A81AA2797FDA09524
:1001D000BA2FBC01CD010E949001DC01CB01898BBB
:1001E0009A8BAB8BBC8B20E030E04AE755E4698901
:1001F0007A898B899C890E941C02DC01CB018D8B42
:100200009E8BAF8BB88F20E030E040E85FE36D89D4
:100210007E898F89988D0E945E0188232CF481E06D
:1002200090E09A8F898F3FC020E03FEF4FE757E47F
:100230006D897E898F89988D0E94180218164CF559
:1002400020E030E040E251E469897A898B899C8919
:100250000E941C02DC01CB01BC01CD010E946201A5
:10026000DC01CB019A8F898F0FC080E991E09C8FD0
:100270008B8F8B8D9C8D0197F1F79C8F8B8F898D48
:100280009A8D01979A8F898F898D9A8D009769F73A
:100290000ECF6D897E898F89988D0E946201DC0165
:1002A000CB019A8F898F898D9A8D9E8F8D8F8D8DA1
:1002B0009E8D0197F1F79E8F8D8FF9CE6CD008F44B
:1002C00081E0089594D088F09F5790F0B92F992736
:1002D000B751A0F0D1F0660F771F881F991F1AF051
:1002E000BA95C9F712C0B13081F09BD0B1E0089542
:1002F00098C0672F782F8827B85F39F0B93FCCF3C3
:10030000869577956795B395D9F73EF49095809546
:10031000709561957F4F8F4F9F4F0895E89409C066
:1003200097FB3EF490958095709561957F4F8F4F28
:100330009F4F9923A9F0F92F96E9BB279395F6953E
:10034000879577956795B795F111F8CFFAF4BB0FBC
:1003500011F460FF1BC06F5F7F4F8F4F9F4F16C020
:10036000882311F096E911C0772321F09EE8872FAA
:10037000762F05C0662371F096E8862F70E060E066
:100380002AF09A95660F771F881FDAF7880F9695DF
:10039000879597F90895990F0008550FAA0BE0E883
:1003A000FEEF16161706E807F907C0F01216130637
:1003B000E407F50798F0621B730B840B950B39F477
:1003C0000A2661F0232B242B252B21F408950A26DD
:1003D00009F4A140A6958FEF811D811D089557FD59
:1003E0009058440F551F59F05F3F71F04795880FA3
:1003F00097FB991F61F09F3F79F08795089512163A
:1004000013061406551FF2CF4695F1DF08C01616E5
:1004100017061806991FF1CF869571056105089496
:100420000895E894BB2766277727CB0197F90895AD
:10043000B2DF08F48FEF08950BD078C069D028F0B0
:100440006ED018F0952309F05AC05FC01124EACF8E
:10045000C6DFA0F3959FD1F3950F50E0551F629F23
:10046000F001729FBB27F00DB11D639FAA27F00D0D
:10047000B11DAA1F649F6627B00DA11D661F829F34
:100480002227B00DA11D621F739FB00DA11D621F19
:10049000839FA00D611D221F749F3327A00D611D36
:1004A000231F849F600D211D822F762F6A2F112418
:1004B0009F5750408AF0E1F088234AF0EE0FFF1F6B
:1004C000BB1F661F771F881F91505040A9F79E3FA2
:1004D000510570F014C0A6CF5F3FECF3983EDCF3FB
:1004E000869577956795B795F795E7959F5FC1F7DF
:1004F000FE2B880F911D9695879597F9089597F98A
:100500009F6780E870E060E008959FEF80EC0895B9
:1005100000240A94161617061806090608950024E2
:100520000A9412161306140605060895092E03945C
:10053000000C11F4882352F0BB0F40F4BF2B11F4D0
:1005400060FF04C06F5F7F4F8F4F9F4F0895F894F7
:02055000FFCFDB
:00000001FF
